:03000000020006F5
:03005F0002000399
:0300030002006296
:2000620090E60B7403F090E68D7401F090E6A1E020E1F990E68DE0FF7E00C3EE9F5020EE2F
:2000820024C0FCE434E7FDEE2480F582E434E7F583E0FB0B0B0B8C828D83EBF00E80DB9014
:0D00A200E68FEFF090E6A2E030E1BB80F7C2
:06003500E478FFF6D8FD9F
:200013007900E94400601B7A009000B37801759200E493F2A308B800020592D9F4DAF275FC
:0200330092FF3A
:20003B007800E84400600A7901759200E4F309D8FC7800E84400600C7900900001E4F0A3D1
:04005B00D8FCD9FAFA
:0D0006007581071200AFE582600302000360
:0400AF007582002234
:00000001FF
