:03000000020006F5
:03005F0002000399
:030003000200BC3C
:2000620090E60174F3F00000000090E60B7403F00000000090E61474E2F00000000090E682
:20008200047480F00000000090E6047482F00000000090E6047484F00000000090E60474C6
:2000A20086F00000000090E6047488F00000000090E604E4F0000000002212006275B30056
:2000C200000000007E007F007508018F09E5AA20E5FB7A007B00C3EB64809481505B8A8229
:2000E20074F82BF5838E0189F005F07401800225E0D5F0FBF9F074FF2AF8E43BFD8882741E
:20010200F82DF583E9F0E5082EFEE5093FFFC374059E74808FF063F08095F0400AEE9401B0
:20012200EF64809480500BC3E49508F508E49509F5090ABA00A00B809D90E6987402F000BA
:0F01420000000090E699E4F0000000000200CFFA
:06003500E478FFF6D8FD9F
:200013007900E94400601B7A009001557801759200E493F2A308B800020592D9F4DAF27559
:0200330092FF3A
:20003B007800E84400600A7901759200E4F309D8FC7800E84400600C7900900001E4F0A3D1
:04005B00D8FCD9FAFA
:0D000600758109120151E5826003020003BB
:040151007582002291
:00000001FF
