:03000000020006F5
:03005F0002000399
:0300030002009B5D
:20006200AE82AF83C3EE9408EF648094805011AD088EF005F0ED800225E0D5F0FBFD42B23A
:2000820022AF82BF080050108FF005F0E508800225E0D5F0FBFF6280229000011200CA7557
:2000A20008019000001200627508007582001200839003E81200CA750801758200120083C7
:0800C2009003E81200CA80E07F
:06003500E478FFF6D8FD9F
:200013007900E94400601B7A009001237801759200E493F2A308B800020592D9F4DAF2758B
:0200330092FF3A
:20003B007800E84400600A7901759200E4F309D8FC7800E84400600C7900900001E4F0A3D1
:04005B00D8FCD9FAFA
:2000CA00AE82AF8390E600E05418C423541F70057CB1FD801C90E600E05418C423541FFB46
:2000EA00BB01067A617B0180047AC27B028A048B058C088D09150874FFB508021509E508FE
:15010A00450970F1EE24FFFAEF34FFFB8A068B07EA4B70DD2243
:0D00060075810912011FE5826003020003ED
:04011F0075820022C3
:00000001FF
