:03000000020006F5
:03005F0002000399
:0300030002006296
:2000620090E60B7403F090E68D7401F090E6A1E020E1F990E68DE090E780E0FFBF01028042
:200082000ABF02028050BF03DD807990E781E0F5B290E782E0F5B390E783E0F5B490E784AB
:2000A200E0F5B590E785E0F5B690E7C0E5B2F090E7C1E5B3F090E7C2E5B4F090E7C3E5B519
:2000C200F090E7C4E5B6F090E68F7405F090E6A2E030E19280F790E7C0E580F090E7C1E53F
:2000E20090F090E7C2E5A0F090E7C3E5B0F090E7C4E5B1F090E68F7405F090E6A2E020E1E9
:20010200F902006890E781E0F58090E782E0F59090E783E0F5A090E784E0F5B090E785E004
:05012200F5B1020068C8
:06003500E478FFF6D8FD9F
:200013007900E94400601B7A0090012B7801759200E493F2A308B800020592D9F4DAF27583
:0200330092FF3A
:20003B007800E84400600A7901759200E4F309D8FC7800E84400600C7900900001E4F0A3D1
:04005B00D8FCD9FAFA
:0D000600758107120127E5826003020003E7
:0401270075820022BB
:00000001FF
