:03000000020006F5
:03005F0002000399
:030003000200C533
:2000620090E60B7403F090E60174F3F00000000090E600E054E74410F00000000090E61469
:2000820074E2F00000000090E6047480F00000000090E6047482F00000000090E6047484E8
:2000A200F00000000090E6047486F00000000090E6047488F00000000090E604E4F0000036
:2000C20000002212006275B30000000000E5AA20E5FB7E007F00C3EF6480948250118E82B7
:2000E20074F82FF583E590F00EBE00EA0F80E790E6987402F00000000090E699E4F0000003
:04010200000080C9B0
:06003500E478FFF6D8FD9F
:200013007900E94400601B7A0090010A7801759200E493F2A308B800020592D9F4DAF275A4
:0200330092FF3A
:20003B007800E84400600A7901759200E4F309D8FC7800E84400600C7900900001E4F0A3D1
:04005B00D8FCD9FAFA
:0D000600758107120106E582600302000308
:0401060075820022DC
:00000001FF
