:03000000020006F5
:03005F0002000399
:0300030002006296
:2000620090E60B7403F075B20175B30075B40075B50075B65590E68D7401F090E6A1E020F4
:20008200E1F990E68DE090E780E0FFBF01028013BF02028059BF0303020123BF0403020126
:2000A2005680D290E781E0F5B290E782E0F5B390E783E0F5B490E784E0F5B590E785E0F5BD
:2000C200B690E7C0E5B2F090E7C1E5B3F090E7C2E5B4F090E7C3E5B5F090E7C4E5B6F0900E
:2000E200E68F7405F090E6A2E030E18980F77E007F00C3EE9440EF648094805014EE24C078
:20010200F582EF34E7F583E580F00EBE00E40F80E190E68F7440F090E6A2E020E1F90200D2
:20012200777E007F00C3EE9440EF648094805014EE24C0F582EF34E7F583E590F00EBE007D
:20014200E40F80E190E68F7440F090E6A2E020E1F90200777E007F00C3EF64809482501428
:20016200EE24C0F582EF34E7F583E5B0F00EBE00E70F80E490E68F74FFF090E6A2E020E1A6
:04018200F902007707
:06003500E478FFF6D8FD9F
:200013007900E94400601B7A0090018A7801759200E493F2A308B800020592D9F4DAF27524
:0200330092FF3A
:20003B007800E84400600A7901759200E4F309D8FC7800E84400600C7900900001E4F0A3D1
:04005B00D8FCD9FAFA
:0D000600758107120186E582600302000388
:04018600758200225C
:00000001FF
