:0400000002002132A7
:01000B0032C2
:0100130032BA
:03001B0002007D63
:03007A0002001E63
:03001E000200DD00
:20007D00C0E0C007C0D075D000758DFC758BBFE50B7002801DAF0974015FF580E50AC313A5
:20009D00C50913C509F50A1508E5087005F50B53A8F7D0D0D007D0E032AE82AF83E50B7009
:2000BD00FCEE2EFCEF33FD8C0974024DF50A75080A750B01ACA84304088CA88E828F832276
:2000DD00758DFC758BBF758910AEA84306808EA8AE887F004306408E8875B2017420C0E033
:2000FD007409C0E07480C0E012015E1581158115817C007D407E027F00EC24FFF8ED34FFA0
:19011D00F9EE34FFFAEF34FFFB880489058A068B07E8494A4B70E280C301
:0E09200048656C6C6F20576F726C64210A0082
:06005000E478FFF6D8FD84
:20002E007900E94400601B7A009009397801759200E493F2A308B800020592D9F4DAF27552
:02004E0092FF1F
:200056007800E84400600A7901759200E4F309D8FC7800E84400600C7900900001E4F0A3B6
:04007600D8FCD9FADF
:20013600C0358581357E008E831200B6D0352285821D85831E85F01FE4F51AF51BF51C8584
:200156000C2090013602022BC035858135E53524FBFF8F20E4F51AF51BF51CE53524FBF80B
:11017600861D08861E08861F90013612022BD035224F
:20018700AF82C010C011C0121201948007C00EC00F8F82221581158115810518E4B5180224
:2001A700051922AF8274302FFF24C6501174072FFFE50D60098F057E004305208D078F8287
:2001C700020187E582FFC4540FF582C0071201AAD007740F5FF5820201AA858236AB13AC82
:2001E70014AD15AE16AA177538208A07EF2FF537EE2354014537FAEB2BFBEC33FCED33FDD0
:20020700EE33FEC3EA95364008EAC39536FA430301E53814FF8F3870D18B138C148D158E99
:20022700168A172285820E85830F851A10851B11851C12E4F518F519AD1DAE1EAF1F8D822D
:200247008E838FF0120900FC74012DF51DE43EF51E8F1FECFF70030208E1BF2502800302A5
:2002670008D97E007D008E218E227A007B008E237C008E248E2A7525FF851D2B851E2C85F6
:200287001F2D852B82852C83852DF0120900F52EA385822B85832C852B1D852C1E852D1F4F
:2002A7007425B52E08852E82120187808B74D0252E5039E52E24C6403374FFB5251AE52AD3
:2002C700F52F75F00AA4F52FE52EF530252F24D0F52A70AE7D0180AAE52575F00AA4F53015
:2002E700E52EF52F253024D0F5258096742EB52E0A74FFB5258C7525008087749F252E5088
:200307000EE52E24854008532EDF750D018003750D007420B52E030203B4742BB52E030222
:2003270003AE742DB52E0280797442B52E030203BA7443B52E030203C57444B52E0302051F
:20034700D67446B52E030205EC7448B52E030202897449B52E030205D6744AB52E030202D6
:2003670089744CB52E028050744FB52E030205DD7450B52E030205217453B52E0280767403
:2003870054B52E030202897455B52E030205E27458B52E030205E7745AB52E030202890214
:2003A70005F07E010202897521010202897522010202897B01020289752301020289EB6072
:2003C7000AE52014F989208730800DE52024FEF52F852F20A92F8730853082C006C005C0DD
:2003E70004C003C002120187D002D003D004D005D00602060FE52024FDF530853020A9309F
:20040700872B09872C09872D1919852B13852C14852D15852B82852C83852DF0C006C00596
:20042700C004C003C0021208E885822B85832CD002D003D004D005D006852B3074FFB525B3
:2004470003853025EE7036C3E530952A502FE52AC39530F52F852F2B152FE52B601C7582AD
:2004670020C006C005C004C003C002120187D002D003D004D005D00680DB852F2A85252FB1
:200487008513828514838515F0120900F52B852B276048852F2B152FC37480852BF063F00E
:2004A7008095F05036852782C006C005C004C003C002120187D002D003D004D005D0068565
:2004C700132B85142C85152D052BE4B52B02052C852B13852C14852D1580A5EE7003020647
:2004E7000FC3E530952A400302060FE52AC39530F53085302F1530E52F700302060C75827E
:2005070020C006C005C004C003C002120187D002D003D004D005D00680D8E52024FDF52F80
:20052700852F20A92F872B09872C09872D1919852B13852C14852D15851528748025285009
:2005470005752F43801974A025285005752F50800E74C025285005752F498003752F588510
:200567002F82C006C005C004C003C00212018775823A120187758230120187758278120147
:2005870087D002D003D004D005D0067449B52F0280217450B52F02801A851482C006C0057B
:2005A700C004C003C0021201CAD002D003D004D005D006851382C006C005C004C003C002FC
:2005C7001201CAD002D003D004D005D00680397A0175240A8032752408802D75240A8028F1
:2005E70075241080237C01801F852E82C006C005C004C003C002120187D002D003D004D0A0
:2006070005D006800385302AEC6068E52024FCFC8C208C018731098732098733098734196E
:20062700191985311385321485331585341675132E7514097515808513318514328515339E
:2006470074012531F52BE43532F52C85332D852B13852C14852D158531828532838533F0EE
:20066700120900FC8C31700302023F85318212018780C4E524700302023FEB603FE5201471
:20068700F9892087048C31753200753300753400853113853214853315853416EA600302F2
:2006A700072C8513317532007533007534008531138532148533158534168069E523602599
:2006C700E52024FCFC8C208C0187310987320987330987341919198531138532148533150C
:2006E7008534168040E52024FEFC8C208C018703098704198B31ECF5323395E0F533F53409
:20070700853113853214853315853416EA7016851331851432F533F5348531138532148534
:200727003315853416EA602AE51630E723C3E49513F531E49514F532E49515F533E4951684
:20074700F53485311385321485331585341680027A007C01793E7B00751700852482C00611
:20076700C005C004C003C002C0011201E1D001D002D003D004D005D006EC7010C003E5178F
:20078700C4F531E74531F719D0038002A7170BECB40100E433FCE51345144515451670B8FB
:2007A70089298B26E52A7003752A01ED702CEE7029852A31AB260BC3EB9531501A758220EC
:2007C700C006C005C004C002120187D002D004D005D006153180DD85312AEA601675822D0F
:2007E700C006C005C004120187D004D005D006152A8036E5266032E521601675822BC00694
:20080700C005C004120187D004D005D006152A8018E5226014758220C006C005C004120164
:2008270087D004D005D006152AEE7034AB2A8B021BC3E5269A503CED600875313075320097
:200847008006753120753200853182C006C005C004C003120187D003D004D005D00680CE1A
:20086700C3E526952A5008E52AC39526FD80067D0080028B05A929AB268B021BEA6036EC36
:20088700B40100E433FC700A09E7C4540FFA8A1780078702740F5AF517851782C006C005BB
:2008A700C004C003C0011201AAD001D003D004D005D00680C4EE700302023F8D068E051EDD
:2008C700ED700302023F758220C006120187D00680EB8F8212018702023F85188285198388
:0108E70022EE
:0B092E003C4E4F20464C4F41543E0011
:1808E800AA82AB831209006003A380F8C3E5829AF582E5839BF583222D
:0D00210075813E12091CE582600302001E7D
:1C09000020F71430F6148883A88220F507E6A88375830022E280F7E49322E02206
:04091C0075820022BE
:00000001FF
