:201E000012010002FFFFFF40B40413860100010203010A060002FFFFFF40010009021900A3
:151E200001010080320904000001FFFFFF00070582020002005C
:191E36000902190001010080320904000001FFFFFF0007058202400000E0
:201E5000040309040E0373006900670072006F006B0010036600780032006C006100660068
:1C1E700077001803430079007000720065007300730020004600580032000000EB
:040000000201B9320E
:01000B0032C2
:0100130032BA
:01001B0032B2
:0100230032AA
:03002B000204C705
:01003300329A
:01003B003292
:01004300328A
:01004B003282
:01005300327A
:01005B003272
:01006300326A
:03006B0002039FEE
:0300730002113245
:03007B00020996E1
:0300830002112F38
:03008B000204313B
:0300930002047CE8
:03009B00020993C4
:0300A300021185C2
:0300AB00021186B9
:0300B300021187B0
:0300BB0002118AA5
:0300C300021131F6
:0300CB0002114ED1
:0300D30002114FC8
:0300DB00021151BE
:0300E3000203B75E
:0300EB0002123AC4
:0300F3000209946B
:0300FB0002099562
:03010300020CF3F8
:03010B00020CF4EF
:03011300020CF5E6
:03011B000211E5E9
:0301230002118343
:03012B0002118836
:0301330002118B2B
:03013B0002118D21
:0301430002118422
:03014B0002118915
:0301530002118C0A
:03015B0002118E00
:030163000211E4A2
:03016B000211522C
:0301730002117DF9
:03017B0002117FEF
:03018300021181E5
:03018B0002117CE2
:0301930002117ED8
:03019B00021180CE
:0301A300021182C4
:0301AB00021150EE
:0301B30002113006
:05021200E4F509F50A06
:03022C000201B616
:0301B6000205C27D
:20022F0090E61274E8F00000000090E611E053E07FF00000000090E610E053E07FF00000CA
:20024F00000090E613E053E07FF00000000090E614E053E07FF00000000090E615E053E0DA
:20026F007FF00000000090E6047480F00000000090E6047402F00000000090E604E4F00074
:20028F0000000090E6187408F00000000090E6207402F00000000090E621E4F000000000EE
:2002AF0090E6D27402F0000000002290E7407401F090E74175F000740412113390E68AE474
:2002CF00F00000000090E68B7402F0000000002290E60AE0FF90E740F090E68AE4F00000BC
:2002EF00000090E68B7401F00000000022AF82BFB0028019BFB1028005BFB21F80168F0878
:20030F0090E68BE4F000000000758201221202BA758201221202DF7582012275820022E5EC
:20032F0082600475820022AD22AE23AF248D828E838FF0E412113375820122E5827004E589
:20034F002260047582002290E6837412F0E0FF7E0043072090E683EFF090E6047480F00083
:20036F0000000090E6047402F00000000090E604E4F0000000007582012275820122AF82DB
:20038F00BF01067E017F0080047E007F008E8222C0E0C082C083D2005391EF90E65D7401C5
:2003AF00F0D083D082D0E032C021C0E0C0F0C082C083C007C006C005C004C003C002C001A5
:2003CF00C000C0D075D00090E658E0FFE4F05391EF90E659E030E2147401B50B0F7509018D
:2003EF00750A00C281C007120945D00790E65974FFF090E65B7401F00000000090E658EF09
:20040F00F000000000D0D0D000D001D002D003D004D005D006D007D083D082D0F0D0E0D0BC
:20042F002132C021C0E0C0F0C082C083C007C006C005C004C003C002C001C000C0D075D0B3
:20044F000075820012101F5391EF90E65D7410F0D0D0D000D001D002D003D004D005D006D6
:20046F00D007D083D082D0F0D0E0D02132C021C0E0C0F0C082C083C007C006C005C004C0D2
:20048F0003C002C001C000C0D075D00075820112101F5391EF90E65D7420F0D0D0D000D08F
:2004AF0001D002D003D004D005D006D007D083D082D0F0D0E0D02132C0E0C0D07402B50B93
:2004CF0019150974FFB50902150AE509450A7010B2817509E8750A038006E50B7002D28171
:2004EF00C2CFD0D0D0E03290E60B7403F0C20075080090E680E043E00AF09005DC12118F9D
:20050F0090E680E053E0F7F090E600E054E74410F0E500D2E890E668E0FF43070890E6687B
:20052F00EFF090E65CE0FF43070190E65CEFF090E65AE0FF43070190E65AEFF090E658E0C9
:20054F00FF43070490E658EFF090E65CE0FF43072090E65CEFF0E0FF43071090E65CEFF0DC
:20056F0090E670E4F075B202D28175CA0C75CBFE75C800D2ADD2CAD2AF12022F02066130F8
:20058F000005120CF6C200E508602574B1B5081D90E6A0E020E11990E68BE0FFBF030990B5
:1B05AF00E74075F00012072275080080037508000209551204F612058E80FB61
:03021700750B0064
:2005CA0075AF03759AE4759B007E007F0090E67BE4F00EBE00010FC3EE9480EF648094809D
:2005EA0040EB2290E6F3E4F090E6C3F090E6C1F090E6C2F090E6C074E4F090E6F4E4F090A3
:20060A00E6D3F02290E67174FFF0F5B490E672E0FF43078090E672EFF0AEB67F004306800E
:20062A008EB60000000090E6C5E4F00000000090E6C4E4F02290E6C6E4F090E6C7F090E67A
:20064A00C8F090E6C9F090E6CAF090E6CBF090E6CCF090E6CDF02290E60174EEF090E6F58D
:20066A0074FFF01205ED1205CA12060E12063F750B002285822485832585F026AD24AE2572
:20068A00AF268D828E838FF0E52212113374082DFAE43EFB8F048A828B838CF0E41211335C
:2006AA0074102DFAE43EFB8F048A828B838CF0E52312113374182DFDE43EFE8D828E838F5C
:2006CA00F0E402113385822285832385F024AD22AE23AF248D828E838FF074B81211337401
:2006EA00082DFAE43EFB8F048A828B838CF0740312113374102DFAE43EFB8F048A828B8339
:20070A008CF0E412113374182DFDE43EFE8D828E838FF0743602113385820C85830D85F017
:20072A000EE5BB30E7FB850C82850D83850EF01211E6FC30E50890E6187409F0800690E62B
:20074A00187408F000000000850C82850D83850EF01211E630E60890E60174EEF08006905A
:20076A00E60174AEF07401250CFAE4350DFBAC0E8A828B838CF01211E6F9B90600400475EB
:20078A00820022850C82850D83850EF01211E6F820E40302088A7402250CF8E4350DFEAFF2
:2007AA000E88828E838FF01211E6F514E9607279007DE4E4FEF50FF5108A828B838CF0124D
:2007CA0011E6F87F00C3E50F98E51064808FF063F08095F04003020861C002C003C0048922
:2007EA00008D048E0709B900010D75220075230688828C838FF0C006C005C004C003C00258
:20080A00C00112067DD001D002D003D004D005D006050FE4B50F020510D004D003D00280B7
:20082A0098A8147F007522028F2388828F83121202A882E514C398F51474012400F511E444
:20084A0034E4F512751300882275230690E40075F00012067D800689118D128E13AD11AE65
:20086A0012AF1374012DF511E43EF5128F138514227523008D828E838FF012067D02092F66
:20088A007D007EE4E4FFF50FF5108A828B838CF01211E6F87900C3E50F98E510648089F0D2
:2008AA0063F08095F05048C002C003C0048D008E018F040DBD00010E752200752300888234
:2008CA0089838CF0C007C006C005C004C003C00212067DD002D003D004D005D006D0070556
:2008EA000FE4B50F020510D004D003D002809B8D118E128F137402250CFAE4350DFBAC0E30
:20090A008A828B838CF01211E6FC601974012DF511E43EF5128F138C227523008D828E83E0
:20092A008FF012067DAD11AE12AF138D828E838FF01206CF750B0175820122900001120B8A
:20094A00C9758200120CDC750B02227402B50B38E5BB30E73390E6047480F00000000090E9
:20096A00E618E4F00000000090E6047402F00000000090E6187408F00000000090E604E463
:09098A00F000000000750B0022D2
:010993003231
:010994003230
:01099500322F
:01099600322E
:2009970085822585832685F02790E601E053E0FCF090E601E0FC43040290E601ECF090E66F
:2009B700F574FFF0AA22AB23AC248A828B838CF01211E690E6F3F074012AF8E43BF98C0724
:2009D700888289838FF01211E6F890E6C3F074022AFDE43BFE8C078D828E838FF01211E64C
:2009F70090E6C1F074032AFDE43BFE8C078D828E838FF01211E690E6C2F074052AFDE43BDC
:200A1700FE8C078D828E838FF01211E690E6C0F074062AFAE43BFB8A828B838CF01211E609
:200A3700FA90E6F4F075AF07AD25AE268E9A85259B759DE4759E007F0090E67BE090E67CC2
:200A5700F00FBF800040F290E67174FFF0F5B490E672E0FF43078090E672EFF0AEB67F00E1
:200A77004306808EB60000000090E6C4E4F00000000090E6C5E4F090E6C6F090E6C7F0904C
:200A9700E6C8F090E6C9F090E6CAF090E6CBF090E6CCF090E6CDF022AD82AE83AFF0E52284
:200AB70075F009A4FC2DF9E43EFA8F0389828A838BF01211E690E6C6F07B0074012CF9E47C
:200AD7003BFAE92DF9EA3EF88F02898288838AF01211E690E6C7F074022CF9E43BFAE92D7A
:200AF700F9EA3EF88F02898288838AF01211E690E6C8F074032CF9E43BFAE92DF9EA3EF88A
:200B17008F02898288838AF01211E690E6C9F074042CF9E43BFAE92DF9EA3EF88F028982E4
:200B370088838AF01211E690E6CAF074052CF9E43BFAE92DF9EA3EF88F02898288838AF0D9
:200B57001211E690E6CBF074062CF9E43BFAE92DF9EA3EF88F02898288838AF01211E690A3
:200B7700E6CCF074072CFCE43BFBEC2DFDEB3EFE8D828E838FF01211E690E6CDF022AC8297
:200B9700AD83AEF0FF8E028F038A008B0190E6CEE9F00000000090E6CFEAF0000000008C71
:200BB700028D0390E6D0EBF00000000090E6D1ECF022AE82AF8390E6D0EFF000000000900F
:200BD700E6D1EEF02285822485832585F026E5BB30E7FB90E6F1E0FC7B008524828525838C
:200BF7008526F0EC121133A3EB121133E52224FFFBE52334FFFC7A008A007900C3E89522E2
:200C1700E99523506EE5BB30E7FBEA75F002A42524F8E52535F0F9AF26AEBD7D00888289FE
:200C3700838FF0ED121133A3EE121133882789288F29888289838FF01211E6FEA31211E611
:200C5700FF8A017D00E9B50308EDB50404ADBF8002ADBE8D017D00E94206ED42078527822A
:200C77008528838529F0EE121133A3EF1211330A020C0F2285822485832585F0267C008C1F
:200C9700027B00C3EA9522EB95235038E5BB30E7FBEC75F002A42524F9E52535F0FAAB264C
:200CB70089828A838BF01211E6F8A31211E6FF90E6F0F089828A838BF01211E6F990E6F18C
:1C0CD700F00C80BB22AF82E5BB30E7FB4307048FBB22AF82E5BB30E7FB8FBB22BC
:010CF30032CE
:010CF40032CD
:010CF50032CC
:0601E800E478FFF6D8FDEB
:12021A0075160075170075183675191E751A1C751B1EF3
:200CF60090E6B9E0FF24F45003020E1AEF240A83F582EF241083F583E47328441A601A1A95
:200D16007C1A8299BBF50D0D0E0D0E0E0D0E0D0D0D0D120E9CE5826003020E3690E6A0E0FA
:200D3600FF7E0043070190E6A0EFF0020E36120F30E5826003020E3690E6A0E0FF7E004383
:200D5600070190E6A0EFF0020E36120F7EE5826003020E3690E6A0E0FF7E0043070190E657
:200D7600A0EFF0020E3612104A020E36120389AF8290E740EFF090E68AE4F090E68B04F0B8
:200D9600020E3690E6BAE0F58212038DE5826003020E3690E6A0E0FF7E0043070190E6A0EA
:200DB600EFF0020E3690E6BCE0FF7522157523007524408F8212032EE582701190E6A0E098
:200DD600FF7E0043070190E6A0EFF0805390E740E515F090E68AE4F090E68B04F0804190B2
:200DF600E6BCE0FF90E6BAE0F5228F8212034AE582702D90E6A0E0FF7E0043070190E6A0ED
:200E1600EFF0801C90E6B9E0F5821202FCE582700F90E6A0E0FF7E0043070190E6A0EFF012
:200E360090E6A0E0FF43078090E6A0EFF022AF82747F5FFE24F75003020E98EE240A83F59B
:200E560082EE240D83F583E473717588988C989098940E0E0E0E0E0E0E0E0E90E6A022EFFE
:200E760030E7067EA27FE680047EA17FE68E828F832290E6A32290E6A42290E6A52290E644
:200E9600A6229000002290E6B8E0FFBF80028022BF81028008BF82028037020F2890E7401E
:200EB600E4F090E741F090E68AF090E68B7402F08064E51725E0FFE516420790E740EFF08B
:200ED60090E741E4F090E68AF090E68B7402F0804590E6BCE0F582120E44AE82AF838E0473
:200EF6008F05EE4F7003F582228C828D83E0FC30E0067E017F0080047E007F0090E740EECB
:200F1600F090E741E4F090E68AF090E68B7402F08004758200227582012290E6B8E0FF60C4
:200F360005BF0237801190E6BAE0FFBF010575170080317582002290E6BAE0701A90E6BC17
:200F5600E0F582120E44AE82AF83E0FD5305FE8E828F83EDF0800D7582002290E6B9E0F582
:200F7600820202FC7582012290E6B8E0FF6008BF0202802002101290E6BAE0FFBF020302EE
:200F9600101B90E6BAE0FFBF010675170102101B7582002290E6BAE0705E90E6BCE0F58201
:200FB600120E44AE82AF83EE4F7003F582228E828F83E0FD7C004305018E828F83EDF090B9
:200FD600E6BCE0FF53070F90E6BCE0FE530680E4C423CEC423541F6ECE541FCE6ECE30E468
:200FF6000244E0FD90E683EE2FF0E0FF7E0043072090E683EFF0800D7582002290E6B9E05E
:20101600F5820202FC75820122AF827E0110AF027E00EF600E75181C75191E751A36751B33
:201036001E800C75183675191E751A1C751B1EEE1392AF2290E6BBE0FFBF01028019BF0298
:20105600028024BF0302802CBF0603021104BF07030211140211217E007F1E90E6B3EFF03E
:2010760090E6B47400F02290E6B3E519F090E6B4E518F0227D507E1E7F8090E6BAE0F522CB
:201096007B008B020BEAB5220280428D008E018F028D828E838FF01211E628F8E439F9888F
:2010B6000589068A0774012DF9E43EFA8F0489828A838CF01211E6F9B9030280067D007ED6
:2010D600007F00ED4E6006C3E5229B50B5ED4E600F8D038E0490E6B3ECF090E6B4EDF02276
:2010F60090E6A0E0FF43070190E6A0EFF0227E127F1E90E6B3EFF090E6B47412F02290E616
:19111600B3E51BF090E6B4E51AF02290E6A0E0FF43070190E6A0EFF0228B
:2001C6007900E94400601B7A0090123F780075921CE493F2A308B800020592D9F4DAF2758F
:0201E60092FF86
:01112F00328D
:01113000328C
:01113100328B
:01113200328A
:1B11330020F71130F6138883A88220F509F6A8837583002280FEF280F5F022BB
:01114E00326E
:01114F00326D
:01115000326C
:01115100326B
:03004300021F0099
:201F000002039F00021132000209960002112F000204310002047C00020993000211840007
:201F200002118500021186000211870002118A000211310002114E0002114F0002115100CE
:201F40000203B7000211840002123A000209940002099500020CF300020CF400020CF5009B
:201F60000211E500021184000211840002118400021183000211880002118B0002118D0035
:201F80000211890002118C0002118E000211E4000211520002117D0002117F000211810053
:181FA00002117C0002117E00021180000211820002115000021130003B
:01115200326A
:201153007A10E4FBFCE58225E0F582E58333F583EB33FBEC33FCEB9522F5F0EC952340067C
:09117300FCABF0438201DADD223D
:01117C003240
:2001EE007800E84400600A790075921CE4F309D8FC7800E84400600C7900901C00E4F0A3E7
:04020E00D8FCD9FA45
:01117D00323F
:01117E00323E
:01117F00323D
:01118000323C
:01118100323B
:01118200323A
:011183003239
:011184003238
:011185003237
:011186003236
:011187003235
:011188003234
:011189003233
:01118A003232
:01118B003231
:01118C003230
:01118D00322F
:01118E00322E
:20118F00AE82AF8390E600E05418C423541F70057CB1FD801C90E600E05418C423541FFB70
:2011AF00BB01067A617B0180047AC27B028A048B058C228D23152274FFB522021523E5228C
:1511CF00452370F1EE24FFFAEF34FFFB8A068B07EA4B70DD2254
:0111E40032D8
:0111E50032D7
:0D01B90075812912123BE58260030201B638
:1C11E60020F71430F6148883A88220F507E6A88375830022E280F7E49322E02218
:20120200C2D5E58330E70DD2D5E4C39582F582E49583F583E52330E70DB2D5E4C39522F553
:1812220022E49523F52312115330D50BE4C39582F582E49583F583228D
:01123A003281
:04123B007582002296
:00000001FF
